:100000000C9464000C948C000C948C000C948C0068
:100010000C948C000C948C000C948C000C948C0030
:100020000C948C000C948C000C948C000C948C0020
:100030000C948C000C948C000C948C000C948C0010
:100040000C94E9050C948C000C9459070C94A707A8
:100050000C948C000C948C000C948C000C948C00F0
:100060000C948C000C948C000000000024002700ED
:100070002A0000000000250028002B0000000000DE
:1000800023002600290004040404040404040202DA
:100090000202020203030303030301020408102007
:1000A0004080010204081020010204081020000012
:1000B0000007000201000003040600000000000029
:1000C000000005011309FE0011241FBECFEFD8E088
:1000D000DEBFCDBF11E0A0E0B1E0E6EEFDE102C081
:1000E00005900D92AC35B107D9F712E0ACE5B1E05F
:1000F00001C01D92AF32B107E1F710E0C6ECD0E0CD
:1001000004C02297FE010E94E20EC23CD107C9F74B
:100110000E9469090C94E60E0C940000FB01DC01BE
:1001200002C001900D9241505040D8F708956817D1
:10013000790768F4FB01DC01E40FF51FA40FB51F7C
:1001400002C002900E9241505040D8F708950C948E
:100150008E00FB01DC018D91019080190110D9F313
:10016000990B0895FB01DC0101900D920020E1F74D
:100170000895FB0151915523A9F0BF01DC014D9178
:1001800045174111E1F759F4CD010190002049F0E4
:100190004D9140154111C9F3FB014111EFCF81E0B1
:1001A00090E00197089581309105B1F46F5F7F4F22
:1001B00021F583E691E060E071E00E94580C8AE648
:1001C00091E060E071E00E94580C81E791E060E00E
:1001D00071E00E94580C0895892B79F46F5F7F4F6E
:1001E00061F481E791E00E94A20C8AE691E00E940E
:1001F000A20C83E691E00E94A20C089580E090E0BA
:100200006FEF7FEF0E94D300089581E090E06FEFE1
:100210007FEF0E94D300089580912D0160916001CD
:100220000E94040780912F01609161010E940407E0
:1002300080913101609162010E9404078091330135
:10024000609160010E940407809135016091610115
:100250000E94040780913701609162010E940407A7
:1002600080913901609160010E94040780913B01F7
:10027000609161010E94040780913D0160916201DB
:100280000E94040780913F01609160010E94040771
:1002900080914101609161010E94040780914301B6
:1002A000609162010E940407089580912D01609180
:1002B00060010E94040780912F01609161010E94FA
:1002C000040780913101609162010E9404078091CE
:1002D000330161E00E9404078091350161E00E94D2
:1002E00004078091370161E00E9404078091390181
:1002F00061E00E94040780913B0161E00E940407D5
:1003000080913D0161E00E94040780913F0161E01E
:100310000E9404078091410161E00E9404078091DE
:10032000430161E00E9404076AE570E080E090E02C
:100330000E94310680912D0161E00E9404078091A6
:100340002F0161E00E9404078091310161E00E9469
:10035000040780913301609160010E94040780913D
:100360003501609161010E9404078091370160911D
:1003700062010E9404078091390161E00E94040734
:1003800080913B0161E00E94040780913D0161E0A2
:100390000E94040780913F0161E00E940407809160
:1003A000410161E00E9404078091430161E00E94E5
:1003B00004076AE570E080E090E00E9431068091D9
:1003C0002D0161E00E94040780912F0161E00E94ED
:1003D00004078091310161E00E940407809133019C
:1003E00061E00E9404078091350161E00E940407EA
:1003F0008091370161E00E9404078091390161E03A
:100400000E94040780913B0161E00E9404078091F3
:100410003D0161E00E94040780913F01609160010D
:100420000E94040780914101609161010E940407CC
:1004300080914301609162010E9404076AE570E0C7
:1004400080E090E00E94310680912D0161E00E94E1
:10045000040780912F0161E00E940407809131011F
:1004600061E00E9404078091330161E00E9404076B
:100470008091350161E00E9404078091370161E0BD
:100480000E94040780913901609160010E94040775
:1004900080913B01609161010E94040780913D01C0
:1004A000609162010E94040780913F0161E00E9417
:1004B00004078091410161E00E940407809143019B
:1004C00061E00E9404076AE570E080E090E00E942D
:1004D00031060895AF92BF92CF92DF92EF92FF92D2
:1004E0000F931F93EE24FF2487012FE0A22EB12C3F
:1004F000C12CD12C80912D01609160010E940407D4
:1005000080912F01609161010E9404078091310167
:10051000609162010E940407809133016091600143
:100520000E94040780913501609161010E940407D7
:1005300080913701609162010E9404078091390126
:10054000609160010E94040780913B01609161010C
:100550000E94040780913D01609162010E9404079E
:1005600080913F01609160010E94040780914101E8
:10057000609161010E9404078091430160916201D2
:100580000E940407C801B7010E94310680912D0125
:1005900061E00E94040780912F0161E00E9404073E
:1005A0008091310161E00E9404078091330161E094
:1005B0000E9404078091350161E00E940407809148
:1005C000370161E00E9404078091390161E00E94D7
:1005D000040780913B0161E00E94040780913D0186
:1005E00061E00E94040780913F0161E00E940407DE
:1005F0008091410161E00E9404078091430161E024
:100600000E940407C601B5016E197F09800B910B8A
:100610000E9431060894E11CF11C011D111D80E1AE
:10062000E816F1040105110509F064CF9FE0E92EF9
:10063000F12C012D112D8FE0A82EB12CC12CD12C25
:1006400080912D01609160010E94040780912F012B
:10065000609161010E940407809131016091620103
:100660000E94040780913301609160010E94040799
:1006700080913501609161010E94040780913701EA
:10068000609162010E9404078091390160916001CC
:100690000E94040780913B01609161010E94040760
:1006A00080913D01609162010E94040780913F01A9
:1006B000609160010E940407809141016091610195
:1006C0000E94040780914301609162010E94040727
:1006D000C801B7010E94310680912D0161E00E949E
:1006E000040780912F0161E00E940407809131018D
:1006F00061E00E9404078091330161E00E940407D9
:100700008091350161E00E9404078091370161E02A
:100710000E9404078091390161E00E9404078091E2
:100720003B0161E00E94040780913D0161E00E946D
:10073000040780913F0161E00E940407809141011C
:1007400061E00E9404078091430161E00E94040778
:10075000C601B5016E197F09800B910B0E9431060D
:100760000894E108F108010911098FEFE8168FEFED
:10077000F8068FEF08078FEF180709F061CF1F9178
:100780000F91FF90EF90DF90CF90BF90AF900895C2
:1007900080912D01609160010E94040780912F01DA
:1007A000609161010E9404078091310160916201B2
:1007B0000E94040780913301609160010E94040748
:1007C00080913501609161010E9404078091370199
:1007D000609162010E94040780913901609160017B
:1007E0000E94040780913B01609161010E9404070F
:1007F00080913D01609162010E94040780913F0158
:10080000609160010E940407809141016091610143
:100810000E94040780914301609162010E940407D5
:1008200064E670E080E090E00E94310680912D0146
:1008300061E00E94040780912F0161E00E9404079B
:100840008091310161E00E9404078091330161E0F1
:100850000E9404078091350161E00E9404078091A5
:10086000370161E00E9404078091390161E00E9434
:10087000040780913B0161E00E94040780913D01E3
:1008800061E00E94040780913F0161E00E9404073B
:100890008091410161E00E9404078091430161E081
:1008A0000E94040764E670E080E090E00E94310658
:1008B000089581E791E061E071E00E94870A882352
:1008C00009F581E791E063E071E00E94870A8823DF
:1008D00019F00E94C803089581E791E065E071E096
:1008E0000E94870A882319F00E946A02089581E70E
:1008F00091E067E071E00E94870A882319F00E9466
:10090000550108950E940C0108958AE691E069E07E
:1009100071E00E94870A882309F05EC08AE691E0B0
:1009200067E071E00E94870A882321F0109260013D
:1009300081E04DC08AE691E06BE071E00E94870A99
:10094000882331F081E0809360011092610141C001
:100950008AE691E06DE071E00E94870A882321F029
:1009600081E08093600119C08AE691E06FE071E058
:100970000E94870A882331F0109260011092610171
:1009800081E027C08AE691E061E171E00E94870A78
:10099000882331F01092600181E08093610120C0D2
:1009A0008AE691E061E071E00E94870A882321F0E5
:1009B00081E08093600112C08AE691E063E171E01A
:1009C0000E94870A882341F081E080936001809330
:1009D000610180936201089510926001109261019B
:1009E000109262010895EF92FF920F931F93DF938D
:1009F000CF93CDB7DEB76C970FB6F894DEBF0FBEBE
:100A0000CDBF89E092E00E9469081816190654F4D7
:100A100089E092E00E949A08082F83E691E0602F17
:100A20000E94120C0E3729F10C3251F57E01089408
:100A3000E11CF11CC70165E171E00E94580C8E01B8
:100A4000085F1F4FC80160E071E00E94580C83E608
:100A500091E0B701A8010E94C40AC8010E94A20C3B
:100A6000C7010E94A20C8AE691E063E671E00E9451
:100A70008B0C83E691E060E071E00E94720C47C04D
:100A80000E3509F044C03FE0E32EF12CEC0EFD1EC4
:100A9000C70167E171E00E94580C8E010A5E1F4F8A
:100AA000C80160E071E00E94580C83E691E0B70154
:100AB000A8010E94C40AC8010E94A20CC7010E949A
:100AC000A20C81E791E063E671E00E948B0C83E663
:100AD00091E060E071E00E94720C89E092E069E1CF
:100AE00071E00E94DE0989E092E06AE671E00E940E
:100AF000140A89E092E062E271E00E94DE0989E076
:100B000092E061E771E00E94140A0E9485040E944D
:100B100059046C960FB6F894DEBF0FBECDBFCF91CF
:100B2000DF911F910F91FF90EF90089589E092E07F
:100B300040E855E260E070E00E94E20780912D01FC
:100B400061E00E94C50680912F0161E00E94C50608
:100B50008091310161E00E94C5068091330161E01E
:100B60000E94C5068091350161E00E94C506809112
:100B7000370161E00E94C5068091390161E00E9461
:100B8000C50680913B0161E00E94C50680913D0150
:100B900061E00E94C50680913F0161E00E94C506A8
:100BA0008091410161E00E94C5068091430161E0AE
:100BB0000E94C506109260011092610110926201BC
:100BC00010925D0110925C0110925F0110925E0123
:100BD00008951F920F920FB60F9211242F933F93F7
:100BE0008F939F93AF93BF9380917C0190917D01F0
:100BF000A0917E01B0917F01309180010196A11DED
:100C0000B11D232F2D5F2D3720F02D570196A11DEB
:100C1000B11D2093800180937C0190937D01A0936E
:100C20007E01B0937F018091780190917901A0912C
:100C30007A01B0917B010196A11DB11D80937801CD
:100C400090937901A0937A01B0937B01BF91AF910A
:100C50009F918F913F912F910F900FBE0F901F90FA
:100C600018959B01AC017FB7F89480917801909121
:100C70007901A0917A01B0917B0166B5A89B05C06E
:100C80006F3F19F00196A11DB11D7FBFBA2FA92F8B
:100C9000982F8827860F911DA11DB11D62E0880F36
:100CA000991FAA1FBB1F6A95D1F7BC012DC0FFB7C2
:100CB000F8948091780190917901A0917A01B09196
:100CC0007B01E6B5A89B05C0EF3F19F00196A11D79
:100CD000B11DFFBFBA2FA92F982F88278E0F911D06
:100CE000A11DB11DE2E0880F991FAA1FBB1FEA9545
:100CF000D1F7861B970B885E9340C8F22150304095
:100D00004040504068517C4F211531054105510547
:100D100071F60895789484B5826084BD84B581604D
:100D200084BD85B5826085BD85B5816085BDEEE6F3
:100D3000F0E0808181608083E1E8F0E010828081D2
:100D400082608083808181608083E0E8F0E0808140
:100D500081608083E1EBF0E0808184608083E0EB60
:100D6000F0E0808181608083EAE7F0E08081846048
:100D700080838081826080838081816080838081A4
:100D8000806880831092C1000895CF93DF93482F2D
:100D900050E0CA0186569F4FFC0134914A575F4F7D
:100DA000FA018491882369F190E0880F991FFC0172
:100DB000E859FF4FA591B491FC01EE58FF4FC59142
:100DC000D491662351F42FB7F8948C91932F90957A
:100DD00089238C93888189230BC0623061F42FB7FB
:100DE000F8948C91932F909589238C938881832BF1
:100DF00088832FBF06C09FB7F8948C91832B8C9368
:100E00009FBFDF91CF910895482F50E0CA018255CE
:100E10009F4FFC012491CA0186569F4FFC0194917B
:100E20004A575F4FFA013491332309F440C022231B
:100E300051F1233071F0243028F42130A1F0223018
:100E400011F514C02630B1F02730C1F02430D9F4A8
:100E500004C0809180008F7703C0809180008F7DD7
:100E60008093800010C084B58F7702C084B58F7DD9
:100E700084BD09C08091B0008F7703C08091B0001D
:100E80008F7D8093B000E32FF0E0EE0FFF1FEE5850
:100E9000FF4FA591B4912FB7F894662321F48C915C
:100EA0009095892302C08C91892B8C932FBF089534
:100EB00008951F920F920FB60F9211242F933F9314
:100EC0004F938F939F93EF93FF938091C00082FD88
:100ED0001DC04091C6002091C1013091C2012F5F19
:100EE0003F4F2F7330708091C3019091C401281738
:100EF000390771F0E091C101F091C201EF57FE4F47
:100F000040833093C2012093C10102C08091C6008A
:100F1000FF91EF919F918F914F913F912F910F9062
:100F20000FBE0F901F901895E0911502F0911602D8
:100F3000E05CFF4F8191919120813181821B930B65
:100F40008F739070892B11F00E94580708951F929B
:100F50000F920FB60F9211242F933F938F939F936D
:100F6000EF93FF93209105023091060280910702D2
:100F7000909108022817390731F48091C1008F7DC4
:100F80008093C10014C0E0910702F0910802EB5376
:100F9000FE4F2081809107029091080201968F7385
:100FA000907090930802809307022093C600FF91EF
:100FB000EF919F918F913F912F910F900FBE0F90C6
:100FC0001F901895AF92BF92DF92EF92FF920F930E
:100FD0001F93CF93DF93EC017A018B01DD24403026
:100FE00081EE580780E0680780E0780711F0DD2483
:100FF000D39491E0A92EB12CEC89FD89DD2069F014
:10100000C50108A002C0880F991F0A94E2F78083E7
:1010100060E079E08DE390E005C0108260E874E85C
:101020008EE190E0A80197010E94BE0E2150304051
:1010300040405040569547953795279580E12030A0
:10104000380720F0DD2011F0DD24D6CFE889F989BA
:101050003083EA89FB89208319A2EE89FF894081C8
:1010600021E030E0C9010C8C02C0880F991F0A945E
:10107000E2F7482B4083EE89FF894081C9010D8C3E
:1010800002C0880F991F0A94E2F7482B4083EE892B
:10109000FF894081C9010E8C02C0880F991F0A94F4
:1010A000E2F7482B4083EE89FF8980810F8C02C0D4
:1010B000220F331F0A94E2F7209528232083DF9123
:1010C000CF911F910F91FF90EF90DF90BF90AF9065
:1010D0000895DC011C96ED91FC911D97E05CFF4F9B
:1010E0002191319180819181281B390B2F733070B0
:1010F000C9010895DC011C96ED91FC911D97E05CFF
:10110000FF4F20813181E054F040DF01AE5BBF4FE3
:101110008D919C9111972817390719F42FEF3FEF04
:1011200007C08D919C91E80FF91F8081282F30E036
:10113000C9010895DC011C96ED91FC911D97E05CBE
:10114000FF4F20813181E054F040DF01AE5BBF4FA3
:101150008D919C9111972817390719F42FEF3FEFC4
:1011600010C08D919C911197E80FF91F20818D91EE
:101170009C91119701968F73907011969C938E930A
:1011800030E0C9010895DC0191968C9191978823F4
:1011900039F05496ED91FC915597808186FFF9CFF7
:1011A00091961C920895CF93DF93EC01EE85FF8515
:1011B000E05CFF4F20813181E054F0402F5F3F4FD2
:1011C0002F733070DF01AE5BBF4F8D919C911197F3
:1011D00028173907D1F3E05CFF4F80819181E054FB
:1011E000F040E80FF91F6083EE85FF85E05CFF4F5C
:1011F00031832083EE89FF89208181E090E00F8C8C
:1012000002C0880F991F0A94E2F7282B208381E0FF
:1012100089A3EC89FD8980818064808381E090E0EE
:10122000DF91CF91089510920C0210920B0288EE7C
:1012300093E0A0E0B0E080930D0290930E02A093A3
:101240000F02B09310028FE491E090930A02809312
:10125000090281E891E0909316028093150285ECD3
:1012600091E0909318028093170285EC90E09093A0
:101270001A028093190284EC90E090931C028093F0
:101280001B0280EC90E090931E0280931D0281EC83
:1012900090E09093200280931F0282EC90E0909364
:1012A00022028093210286EC90E0909324028093A6
:1012B000230284E08093250283E08093260287E066
:1012C0008093270285E08093280281E080932902A1
:1012D0000895CF93DF930E948A060E949605C4E981
:1012E000D7E00E94F3042097E1F30E949407F9CF1E
:1012F000CF92DF92EF92FF920F931F93CF93DF93E2
:101300007C016B018A01C0E0D0E00FC0D6016D9175
:101310006D01D701ED91FC910190F081E02DC701A5
:101320000995C80FD91F015010400115110571F71B
:10133000CE01DF91CF911F910F91FF90EF90DF9041
:10134000CF900895EF92FF920F931F938C01DC01D1
:10135000ED91FC910190F081E02D6DE009957C010B
:10136000D801ED91FC910190F081E02DC8016AE077
:1013700009959C012E0D3F1DC9011F910F91FF90F2
:10138000EF900895CF93DF93EC016115710519F487
:1013900020E030E00FC0DB010D900020E9F711974D
:1013A000A61BB70BE881F9810280F381E02DAD0126
:1013B00009959C01C901DF91CF9108950E94C2094E
:1013C0000895AF92BF92CF92DF92EF92FF920F9368
:1013D0001F93CF93DF935C016B01EE24FF24C0E0E9
:1013E000D0E010C0D501ED91FC9100811181C601C2
:1013F000BE010E94280A682FC501F8010995E80E70
:10140000F91E2196F60184819581C817D90750F3FA
:10141000C701DF91CF911F910F91FF90EF90DF9067
:10142000CF90BF90AF900895EF92FF920F931F93CC
:101430007C010E94E1098C01C7010E94A2099C0164
:10144000200F311FC9011F910F91FF90EF90089558
:10145000FC01848195816817790748F40190F08137
:10146000E02D309721F0E60FF71F8081089580E08E
:101470000895AF92BF92CF92DF92EF92FF920F93B7
:101480001F93CF93DF93FC015B017A01DB0114967C
:101490002D913C9115972115310559F18481958144
:1014A000009739F18217930720F14817590720F068
:1014B0007C010894E108F10800811181C801CFEF97
:1014C000DFEF6801CE0CDF1C10C0F5016081718177
:1014D0000E94B9009C01009771F0801B910BE816E7
:1014E000F90608F0EC01C9010196C816D90668F79B
:1014F00002C0CFEFDFEFCE01DF91CF911F910F91AF
:10150000FF90EF90DF90CF90BF90AF900895DC01F7
:10151000FB0114968D919C911597892B31F46115DF
:101520007105A9F090E0808108C00D90BC91A02DBC
:101530006115710529F490E08C91882349F407C066
:10154000CD010E94A9009C0190E0232B09F491E0B9
:10155000892F08950F931F93CF93DF93EC018B0195
:101560006F5F7F4F888199810E94DD0D009711F494
:1015700080E005C0998388831B830A8381E0DF9123
:10158000CF911F910F9108952F923F924F925F92AA
:101590006F927F928F929F92AF92BF92CF92DF9283
:1015A000EF92FF920F931F93CF93DF935C012B0178
:1015B0004A01DC0114960D911C9115970115110536
:1015C00009F4D4C0FB01C480D580C114D10409F44E
:1015D000CDC0DA0114966D907C9015976C187D083B
:1015E000FC01E080F1806114710491F01BC0D40112
:1015F0006C9111967C91119714964D915C91159771
:101600008C2F0E948E00F401E480F580EC0EFD1E0C
:10161000D2016D917C91C7010E94B900EC01009745
:1016200031F7A4C077FE02C067012EC0FB01208005
:101630003180E8013CC08E010E191F09C601B701B7
:10164000A8010E948E000C0D1D1DD4016C911196F5
:101650007C91119714964D915C911597C8010E9449
:101660008E00F401C480D580C00ED11ED201149624
:10167000ED90FC901597EC0EFD1EF501848195818F
:10168000860D971D95838483D2016D917C91C7014E
:101690000E94B900EC01009771F6C601B7010E94E3
:1016A000B20064C07B01EC0CFD1CC60DD71DC70148
:1016B000B1010E94B900BC010097A1F7C017D10782
:1016C00009F454C0F501828193818C179D0708F0BD
:1016D00044C0C501BE010E94AA0A8823F1F546C094
:1016E000C501B201A9010E94390AEC0197FD3EC073
:1016F000D5016D917C911197F201848195818C0FB8
:101700009D1F680F791F14964D915C911597481B8A
:10171000590BCB01860D971D0E949700D501149699
:101720008D919C911597860D971D15969C938E9380
:101730001497ED91FC911197E80FF91F10822D91EC
:101740003C912C0F3D1FF4016081718144815581D2
:10175000C9010E948E009E0105C0D50114962D91ED
:101760003C9115972150304037FFBACFDF91CF9190
:101770001F910F91FF90EF90DF90CF90BF90AF90AF
:101780009F908F907F906F905F904F903F902F90A1
:101790000895CF93DF93EC0188819981892B29F0FB
:1017A0008A819B818617970760F4CE010E94AA0A5E
:1017B000882341F08C819D81892B19F4E881F9817E
:1017C000108281E0DF91CF910895EF92FF920F9305
:1017D0001F93CF93DF93EC017B016C817D81E1143A
:1017E000F104C1F04115510599F08A01060F171F48
:1017F000B8010E94C90B882369F0888199812C81E6
:101800003D81820F931FB7010E94B2001D830C839C
:1018100081E001C080E0DF91CF911F910F91FF9097
:10182000EF900895DF93CF9300D0CDB7DEB76983F3
:101830001A82BE016F5F7F4F41E050E00E94E50BCE
:101840000F900F90CF91DF910895CF93DF93EC012C
:1018500088819981009711F00E94450D19821882A4
:101860001D821C821B821A82DF91CF910895EF9214
:10187000FF920F931F93CF93DF93EC017B018A01BB
:10188000BA010E94C90B882321F4CE010E94250CC5
:1018900007C01D830C8388819981B7010E94B20023
:1018A000CE01DF91CF911F910F91FF90EF9008959E
:1018B000CF93DF93EC01198218821B821A821D825A
:1018C0001C821E826115710551F0DB010D90002014
:1018D000E9F71197A61BB70BAD010E94370CDF91FA
:1018E000CF9108950F931F93182F092F611571053C
:1018F00059F0DB010D900020E9F71197A61BB70BFB
:10190000AD010E94370C02C00E94250C812F902F40
:101910001F910F910895CF93DF93EC01FB01861780
:10192000970761F0608171816115710529F044812B
:1019300055810E94370C02C00E94250CCE01DF9118
:10194000CF910895FC01808191810E94450D0895F9
:101950000F931F93CF93DF93BC018230910510F456
:1019600062E070E0E0912D02F0912E02A0E0B0E084
:1019700040E050E024C08081918186179707D0F025
:101980008617970771F482819381109729F0139637
:101990009C938E9312972CC090932E0280932D02CD
:1019A00027C04115510519F08417950718F4EF0168
:1019B0008D01AC01DF01828193819C01F901309797
:1019C000D1F641155105F9F0CA01861B970B8430F9
:1019D000910580F48A819B810115110521F0F801A0
:1019E0009383828304C090932E0280932D02FE0184
:1019F000329645C0FE01E80FF91F6193719302977B
:101A0000998388833CC080912B0290912C02892B72
:101A100041F4809147019091480190932C0280936A
:101A20002B024091490150914A014115510541F461
:101A30004DB75EB78091450190914601481B590B07
:101A400020912B0230912C0224173507B0F4CA01E3
:101A5000821B930B8617970780F0AB014E5F5F4F99
:101A60008417950750F0420F531F50932C02409358
:101A70002B02F9016193719302C0E0E0F0E0CF0125
:101A8000DF91CF911F910F910895CF93DF939C0128
:101A9000009709F48FC0EC0122971B821A82609193
:101AA0002D0270912E026115710581F48881998152
:101AB000820F931F20912B0230912C022817390797
:101AC00039F5D0932C02C0932B0274C0DB0140E0A7
:101AD00050E0AC17BD0708F1BB83AA83FE0121913A
:101AE0003191E20FF31FAE17BF0779F48D919C91EE
:101AF0001197280F391F2E5F3F4F39832883129685
:101B00008D919C9113979B838A834115510571F4A4
:101B1000D0932E02C0932D024DC012968D919C91B0
:101B20001397AD01009711F0DC01D3CFDA011396C2
:101B3000DC93CE931297FA0121913191E20FF31FBA
:101B4000CE17DF0769F488819981280F391F2E5F2E
:101B50003F4FFA01318320838A819B819383828363
:101B6000E0E0F0E0DB0112968D919C9113970097D5
:101B700019F0BC01FD01F6CFAB014E5F5F4FDB01F9
:101B80008D919C91840F951F20912B0230912C02F6
:101B90002817390779F4309729F410922E02109201
:101BA0002D0202C0138212824250504050932C02E8
:101BB00040932B02DF91CF9108956F927F928F9285
:101BC0009F92AF92BF92CF92DF92EF92FF920F93CC
:101BD0001F93CF93DF938C01009729F4CB010E94D0
:101BE000A80C8C01BBC08EEFE82E8FEFF82EE00E14
:101BF000F11E4801860E971E8E149F0408F4ACC097
:101C0000D7014D915C91119746175707B8F04530B1
:101C1000510508F4A3C0CA0104978617970708F472
:101C20009DC042505040461B570BF40141935193C5
:101C30006D937C93CF010E94450D90C05B01A41A67
:101C4000B50A3801640E751EA0912D02B0912E02C6
:101C5000CC24DD24E0E0F0E047C0A615B705A9F5E7
:101C6000CD91DC911197CE0102968A159B0568F102
:101C7000CE018A199B09029612962C9112971396FF
:101C80003C91059758F0F40122833383CA19DB098C
:101C9000D183C083D7016D937C9309C04E5F5F4FA2
:101CA0004C0F5D1FF70151834083C901FC01C11432
:101CB000D10431F0D6011396FC93EE9312974EC0E7
:101CC000F0932E02E0932D0249C08D919C911197C3
:101CD000E817F90708F4FC016D0112968C91129730
:101CE00013969C919C01D901109709F0B6CF809171
:101CF0002B0290912C0286159705E9F4E617F70759
:101D0000D0F42091490130914A012115310541F467
:101D10002DB73EB78091450190914601281B390BA4
:101D200082169306C8F490922C0280922B02F7013F
:101D30007183608313C0CB010E94A80CEC01009753
:101D400059F0D7014D915C91B8010E948E00C801F5
:101D50000E94450D8E0102C000E010E0C801DF9135
:101D6000CF911F910F91FF90EF90DF90CF90BF9098
:101D7000AF909F908F907F906F900895A1E21A2E60
:101D8000AA1BBB1BFD010DC0AA1FBB1FEE1FFF1F1F
:101D9000A217B307E407F50720F0A21BB30BE40B6F
:101DA000F50B661F771F881F991F1A9469F76095B6
:101DB0007095809590959B01AC01BD01CF01089570
:101DC000EE0FFF1F0590F491E02D099410E0C6EC92
:101DD000D0E004C0FE010E94E20E2296C83CD1076A
:061DE000C9F7F894FFCFE3
:101DE6000053004600660052005700470042005963
:101DF60000500058002C005E00636F6C6F72203A32
:101E060020007061747465726E203A200007000924
:101E1600000800120013000A000C000D000B00035E
:101E2600000400020080002F02000000000000D322
:0C1E360008780969089A087A08C30800B7
:00000001FF
